{
  "_format": "hh-sol-artifact-1",
  "contractName": "PolicyRegistry",
  "sourceName": "contracts/PolicyRegistry.sol",
  "abi": [
    {
      "inputs": [],
      "stateMutability": "nonpayable",
      "type": "constructor"
    },
    {
      "anonymous": false,
      "inputs": [
        {
          "indexed": true,
          "internalType": "address",
          "name": "user",
          "type": "address"
        },
        {
          "indexed": false,
          "internalType": "bytes32",
          "name": "policyHash",
          "type": "bytes32"
        },
        {
          "indexed": false,
          "internalType": "uint256",
          "name": "timestamp",
          "type": "uint256"
        }
      ],
      "name": "PolicyRegistered",
      "type": "event"
    },
    {
      "anonymous": false,
      "inputs": [
        {
          "indexed": true,
          "internalType": "address",
          "name": "user",
          "type": "address"
        },
        {
          "indexed": false,
          "internalType": "bytes32",
          "name": "oldPolicyHash",
          "type": "bytes32"
        },
        {
          "indexed": false,
          "internalType": "bytes32",
          "name": "newPolicyHash",
          "type": "bytes32"
        },
        {
          "indexed": false,
          "internalType": "uint256",
          "name": "timestamp",
          "type": "uint256"
        }
      ],
      "name": "PolicyUpdated",
      "type": "event"
    },
    {
      "inputs": [
        {
          "internalType": "address",
          "name": "user",
          "type": "address"
        }
      ],
      "name": "getPolicy",
      "outputs": [
        {
          "internalType": "bytes32",
          "name": "",
          "type": "bytes32"
        }
      ],
      "stateMutability": "view",
      "type": "function"
    },
    {
      "inputs": [
        {
          "internalType": "address",
          "name": "user",
          "type": "address"
        }
      ],
      "name": "getPolicyTimestamp",
      "outputs": [
        {
          "internalType": "uint256",
          "name": "",
          "type": "uint256"
        }
      ],
      "stateMutability": "view",
      "type": "function"
    },
    {
      "inputs": [
        {
          "internalType": "address",
          "name": "user",
          "type": "address"
        }
      ],
      "name": "hasPolicy",
      "outputs": [
        {
          "internalType": "bool",
          "name": "",
          "type": "bool"
        }
      ],
      "stateMutability": "view",
      "type": "function"
    },
    {
      "inputs": [],
      "name": "owner",
      "outputs": [
        {
          "internalType": "address",
          "name": "",
          "type": "address"
        }
      ],
      "stateMutability": "view",
      "type": "function"
    },
    {
      "inputs": [
        {
          "internalType": "address",
          "name": "",
          "type": "address"
        }
      ],
      "name": "policies",
      "outputs": [
        {
          "internalType": "bytes32",
          "name": "",
          "type": "bytes32"
        }
      ],
      "stateMutability": "view",
      "type": "function"
    },
    {
      "inputs": [
        {
          "internalType": "address",
          "name": "",
          "type": "address"
        }
      ],
      "name": "policyTimestamps",
      "outputs": [
        {
          "internalType": "uint256",
          "name": "",
          "type": "uint256"
        }
      ],
      "stateMutability": "view",
      "type": "function"
    },
    {
      "inputs": [
        {
          "internalType": "bytes32",
          "name": "policyHash",
          "type": "bytes32"
        }
      ],
      "name": "registerPolicy",
      "outputs": [],
      "stateMutability": "nonpayable",
      "type": "function"
    },
    {
      "inputs": [],
      "name": "revokePolicy",
      "outputs": [],
      "stateMutability": "nonpayable",
      "type": "function"
    },
    {
      "inputs": [
        {
          "internalType": "bytes32",
          "name": "newPolicyHash",
          "type": "bytes32"
        }
      ],
      "name": "updatePolicy",
      "outputs": [],
      "stateMutability": "nonpayable",
      "type": "function"
    }
  ],
  "bytecode": "0x608060405234801561001057600080fd5b5033600160006101000a81548173ffffffffffffffffffffffffffffffffffffffff021916908373ffffffffffffffffffffffffffffffffffffffff160217905550610d6a806100616000396000f3fe608060405234801561001057600080fd5b50600436106100935760003560e01c80633791dc6a116100665780633791dc6a146101445780634404f116146101745780638da5cb5b146101905780639eba3667146101ae578063f638cfe1146101b857610093565b8063159d77ac1461009857806320e98698146100b45780632e09ebb2146100e4578063321193ae14610114575b600080fd5b6100b260048036038101906100ad91906108bf565b6101e8565b005b6100ce60048036038101906100c9919061094a565b610450565b6040516100db9190610986565b60405180910390f35b6100fe60048036038101906100f9919061094a565b610468565b60405161010b91906109ba565b60405180910390f35b61012e6004803603810190610129919061094a565b610480565b60405161013b91906109f0565b60405180910390f35b61015e6004803603810190610159919061094a565b6104ce565b60405161016b9190610986565b60405180910390f35b61018e600480360381019061018991906108bf565b610516565b005b6101986106b8565b6040516101a59190610a1a565b60405180910390f35b6101b66106de565b005b6101d260048036038101906101cd919061094a565b61083b565b6040516101df91906109ba565b60405180910390f35b6000801b810361022d576040517f08c379a000000000000000000000000000000000000000000000000000000000815260040161022490610a92565b60405180910390fd5b6000801b6000803373ffffffffffffffffffffffffffffffffffffffff1673ffffffffffffffffffffffffffffffffffffffff16815260200190815260200160002054036102b0576040517f08c379a00000000000000000000000000000000000000000000000000000000081526004016102a790610b24565b60405180910390fd5b6000803373ffffffffffffffffffffffffffffffffffffffff1673ffffffffffffffffffffffffffffffffffffffff168152602001908152602001600020548103610330576040517f08c379a000000000000000000000000000000000000000000000000000000000815260040161032790610bb6565b60405180910390fd5b60008060003373ffffffffffffffffffffffffffffffffffffffff1673ffffffffffffffffffffffffffffffffffffffff168152602001908152602001600020549050816000803373ffffffffffffffffffffffffffffffffffffffff1673ffffffffffffffffffffffffffffffffffffffff1681526020019081526020016000208190555042600260003373ffffffffffffffffffffffffffffffffffffffff1673ffffffffffffffffffffffffffffffffffffffff168152602001908152602001600020819055503373ffffffffffffffffffffffffffffffffffffffff167ff6d219aab4c24417cfc713cf93046bd7ef18e2f3c87053ee798b2bbece23dcac82844260405161044493929190610bd6565b60405180910390a25050565b60006020528060005260406000206000915090505481565b60026020528060005260406000206000915090505481565b60008060001b6000808473ffffffffffffffffffffffffffffffffffffffff1673ffffffffffffffffffffffffffffffffffffffff1681526020019081526020016000205414159050919050565b60008060008373ffffffffffffffffffffffffffffffffffffffff1673ffffffffffffffffffffffffffffffffffffffff168152602001908152602001600020549050919050565b6000801b810361055b576040517f08c379a000000000000000000000000000000000000000000000000000000000815260040161055290610c59565b60405180910390fd5b6000801b6000803373ffffffffffffffffffffffffffffffffffffffff1673ffffffffffffffffffffffffffffffffffffffff16815260200190815260200160002054146105de576040517f08c379a00000000000000000000000000000000000000000000000000000000081526004016105d590610ceb565b60405180910390fd5b806000803373ffffffffffffffffffffffffffffffffffffffff1673ffffffffffffffffffffffffffffffffffffffff1681526020019081526020016000208190555042600260003373ffffffffffffffffffffffffffffffffffffffff1673ffffffffffffffffffffffffffffffffffffffff168152602001908152602001600020819055503373ffffffffffffffffffffffffffffffffffffffff167fb786b625e821ec892789ec3a6483868bfd9f6b90ef39d117600604a62ddc287f82426040516106ad929190610d0b565b60405180910390a250565b600160009054906101000a900473ffffffffffffffffffffffffffffffffffffffff1681565b6000801b6000803373ffffffffffffffffffffffffffffffffffffffff1673ffffffffffffffffffffffffffffffffffffffff1681526020019081526020016000205403610761576040517f08c379a000000000000000000000000000000000000000000000000000000000815260040161075890610b24565b60405180910390fd5b6000803373ffffffffffffffffffffffffffffffffffffffff1673ffffffffffffffffffffffffffffffffffffffff16815260200190815260200160002060009055600260003373ffffffffffffffffffffffffffffffffffffffff1673ffffffffffffffffffffffffffffffffffffffff168152602001908152602001600020600090553373ffffffffffffffffffffffffffffffffffffffff167fb786b625e821ec892789ec3a6483868bfd9f6b90ef39d117600604a62ddc287f6000801b42604051610831929190610d0b565b60405180910390a2565b6000600260008373ffffffffffffffffffffffffffffffffffffffff1673ffffffffffffffffffffffffffffffffffffffff168152602001908152602001600020549050919050565b600080fd5b6000819050919050565b61089c81610889565b81146108a757600080fd5b50565b6000813590506108b981610893565b92915050565b6000602082840312156108d5576108d4610884565b5b60006108e3848285016108aa565b91505092915050565b600073ffffffffffffffffffffffffffffffffffffffff82169050919050565b6000610917826108ec565b9050919050565b6109278161090c565b811461093257600080fd5b50565b6000813590506109448161091e565b92915050565b6000602082840312156109605761095f610884565b5b600061096e84828501610935565b91505092915050565b61098081610889565b82525050565b600060208201905061099b6000830184610977565b92915050565b6000819050919050565b6109b4816109a1565b82525050565b60006020820190506109cf60008301846109ab565b92915050565b60008115159050919050565b6109ea816109d5565b82525050565b6000602082019050610a0560008301846109e1565b92915050565b610a148161090c565b82525050565b6000602082019050610a2f6000830184610a0b565b92915050565b600082825260208201905092915050565b7f4e657720706f6c69637920686173682063616e6e6f7420626520656d70747900600082015250565b6000610a7c601f83610a35565b9150610a8782610a46565b602082019050919050565b60006020820190508181036000830152610aab81610a6f565b9050919050565b7f4e6f20706f6c696379207265676973746572656420666f72207468697320616460008201527f6472657373000000000000000000000000000000000000000000000000000000602082015250565b6000610b0e602583610a35565b9150610b1982610ab2565b604082019050919050565b60006020820190508181036000830152610b3d81610b01565b9050919050565b7f4e657720706f6c6963792068617368206d75737420626520646966666572656e60008201527f742066726f6d2063757272656e74206861736800000000000000000000000000602082015250565b6000610ba0603383610a35565b9150610bab82610b44565b604082019050919050565b60006020820190508181036000830152610bcf81610b93565b9050919050565b6000606082019050610beb6000830186610977565b610bf86020830185610977565b610c0560408301846109ab565b949350505050565b7f506f6c69637920686173682063616e6e6f7420626520656d7074790000000000600082015250565b6000610c43601b83610a35565b9150610c4e82610c0d565b602082019050919050565b60006020820190508181036000830152610c7281610c36565b9050919050565b7f506f6c69637920616c7265616479207265676973746572656420666f7220746860008201527f6973206164647265737300000000000000000000000000000000000000000000602082015250565b6000610cd5602a83610a35565b9150610ce082610c79565b604082019050919050565b60006020820190508181036000830152610d0481610cc8565b9050919050565b6000604082019050610d206000830185610977565b610d2d60208301846109ab565b939250505056fea2646970667358221220504f0983ae7a5ee0a84e5ab53ba0a430729362ec098b86221a92cd5a0d82902364736f6c63430008130033",
  "linkReferences": {},
  "deployedLinkReferences": {}
}