{
  "_format": "hh-sol-artifact-1",
  "contractName": "VerifierDebug",
  "sourceName": "contracts/VerifierDebug.sol",
  "abi": [
    {
      "inputs": [
        {
          "internalType": "address",
          "name": "_verifier",
          "type": "address"
        }
      ],
      "stateMutability": "nonpayable",
      "type": "constructor"
    },
    {
      "inputs": [
        {
          "internalType": "uint256[2]",
          "name": "proofA",
          "type": "uint256[2]"
        },
        {
          "internalType": "uint256[2][2]",
          "name": "proofB",
          "type": "uint256[2][2]"
        },
        {
          "internalType": "uint256[2]",
          "name": "proofC",
          "type": "uint256[2]"
        },
        {
          "internalType": "uint256[1]",
          "name": "pubSignals",
          "type": "uint256[1]"
        }
      ],
      "name": "testVerifyProof",
      "outputs": [
        {
          "internalType": "bool",
          "name": "",
          "type": "bool"
        }
      ],
      "stateMutability": "view",
      "type": "function"
    },
    {
      "inputs": [],
      "name": "verifier",
      "outputs": [
        {
          "internalType": "contract Groth16Verifier",
          "name": "",
          "type": "address"
        }
      ],
      "stateMutability": "view",
      "type": "function"
    }
  ],
  "bytecode": "0x608060405234801561001057600080fd5b506040516105d83803806105d8833981810160405281019061003291906100db565b806000806101000a81548173ffffffffffffffffffffffffffffffffffffffff021916908373ffffffffffffffffffffffffffffffffffffffff16021790555050610108565b600080fd5b600073ffffffffffffffffffffffffffffffffffffffff82169050919050565b60006100a88261007d565b9050919050565b6100b88161009d565b81146100c357600080fd5b50565b6000815190506100d5816100af565b92915050565b6000602082840312156100f1576100f0610078565b5b60006100ff848285016100c6565b91505092915050565b6104c1806101176000396000f3fe608060405234801561001057600080fd5b50600436106100365760003560e01c80632b7ac3f31461003b578063f9e1b96a14610059575b600080fd5b610043610089565b60405161005091906101d9565b60405180910390f35b610073600480360381019061006e9190610264565b6100ad565b60405161008091906102e8565b60405180910390f35b60008054906101000a900473ffffffffffffffffffffffffffffffffffffffff1681565b60008060009054906101000a900473ffffffffffffffffffffffffffffffffffffffff1673ffffffffffffffffffffffffffffffffffffffff166343753b4d868686866040518563ffffffff1660e01b815260040161010f94939291906103eb565b602060405180830381865afa15801561012c573d6000803e3d6000fd5b505050506040513d601f19601f82011682018060405250810190610150919061045e565b9050949350505050565b600073ffffffffffffffffffffffffffffffffffffffff82169050919050565b6000819050919050565b600061019f61019a6101958461015a565b61017a565b61015a565b9050919050565b60006101b182610184565b9050919050565b60006101c3826101a6565b9050919050565b6101d3816101b8565b82525050565b60006020820190506101ee60008301846101ca565b92915050565b600080fd5b600080fd5b60008190508260206002028201111561021a576102196101f9565b5b92915050565b60008190508260406002028201111561023c5761023b6101f9565b5b92915050565b60008190508260206001028201111561025e5761025d6101f9565b5b92915050565b600080600080610120858703121561027f5761027e6101f4565b5b600061028d878288016101fe565b945050604061029e87828801610220565b93505060c06102af878288016101fe565b9250506101006102c187828801610242565b91505092959194509250565b60008115159050919050565b6102e2816102cd565b82525050565b60006020820190506102fd60008301846102d9565b92915050565b82818337505050565b61031860408383610303565b5050565b600060029050919050565b600081905092915050565b6000819050919050565b61034860408383610303565b5050565b6000610358838361033c565b60408301905092915050565b600082905092915050565b6000604082019050919050565b6103858161031c565b61038f8184610327565b925061039a82610332565b8060005b838110156103d3576103b08284610364565b6103ba878261034c565b96506103c58361036f565b92505060018101905061039e565b505050505050565b6103e760208383610303565b5050565b600061012082019050610401600083018761030c565b61040e604083018661037c565b61041b60c083018561030c565b6104296101008301846103db565b95945050505050565b61043b816102cd565b811461044657600080fd5b50565b60008151905061045881610432565b92915050565b600060208284031215610474576104736101f4565b5b600061048284828501610449565b9150509291505056fea2646970667358221220ad917d4a47951980df04bc8a337e947070775d9749178af0dae22120a4c14df164736f6c63430008130033",
  "linkReferences": {},
  "deployedLinkReferences": {}
}