{
  "_format": "hh-sol-artifact-1",
  "contractName": "Executor",
  "sourceName": "contracts/Executor.sol",
  "abi": [
    {
      "inputs": [
        {
          "internalType": "address",
          "name": "_policyRegistryAddress",
          "type": "address"
        },
        {
          "internalType": "address",
          "name": "_pdrLoggerAddress",
          "type": "address"
        },
        {
          "internalType": "address",
          "name": "_policyCheckVerifierAddress",
          "type": "address"
        }
      ],
      "stateMutability": "nonpayable",
      "type": "constructor"
    },
    {
      "anonymous": false,
      "inputs": [
        {
          "indexed": true,
          "internalType": "address",
          "name": "agent",
          "type": "address"
        },
        {
          "indexed": true,
          "internalType": "address",
          "name": "target",
          "type": "address"
        },
        {
          "indexed": false,
          "internalType": "uint256",
          "name": "value",
          "type": "uint256"
        },
        {
          "indexed": false,
          "internalType": "bool",
          "name": "success",
          "type": "bool"
        },
        {
          "indexed": false,
          "internalType": "bytes",
          "name": "returnData",
          "type": "bytes"
        }
      ],
      "name": "ActionExecuted",
      "type": "event"
    },
    {
      "anonymous": false,
      "inputs": [
        {
          "indexed": true,
          "internalType": "address",
          "name": "agent",
          "type": "address"
        },
        {
          "indexed": false,
          "internalType": "bool",
          "name": "isAuthorized",
          "type": "bool"
        },
        {
          "indexed": false,
          "internalType": "string",
          "name": "actionType",
          "type": "string"
        },
        {
          "indexed": false,
          "internalType": "uint256",
          "name": "timestamp",
          "type": "uint256"
        }
      ],
      "name": "ExecutionAttempted",
      "type": "event"
    },
    {
      "inputs": [
        {
          "internalType": "address",
          "name": "agent",
          "type": "address"
        },
        {
          "internalType": "string",
          "name": "actionType",
          "type": "string"
        },
        {
          "internalType": "address",
          "name": "target",
          "type": "address"
        },
        {
          "internalType": "bytes",
          "name": "payload",
          "type": "bytes"
        },
        {
          "internalType": "uint256[2]",
          "name": "proofA",
          "type": "uint256[2]"
        },
        {
          "internalType": "uint256[2][2]",
          "name": "proofB",
          "type": "uint256[2][2]"
        },
        {
          "internalType": "uint256[2]",
          "name": "proofC",
          "type": "uint256[2]"
        },
        {
          "internalType": "uint256[1]",
          "name": "pubSignals",
          "type": "uint256[1]"
        }
      ],
      "name": "executeWithVerification",
      "outputs": [
        {
          "internalType": "bool",
          "name": "isAuthorized",
          "type": "bool"
        }
      ],
      "stateMutability": "payable",
      "type": "function"
    },
    {
      "inputs": [
        {
          "internalType": "address",
          "name": "agent",
          "type": "address"
        }
      ],
      "name": "getAgentPolicy",
      "outputs": [
        {
          "internalType": "bytes32",
          "name": "",
          "type": "bytes32"
        }
      ],
      "stateMutability": "view",
      "type": "function"
    },
    {
      "inputs": [
        {
          "internalType": "address",
          "name": "agent",
          "type": "address"
        }
      ],
      "name": "isAgentCompliant",
      "outputs": [
        {
          "internalType": "bool",
          "name": "",
          "type": "bool"
        }
      ],
      "stateMutability": "view",
      "type": "function"
    },
    {
      "inputs": [],
      "name": "owner",
      "outputs": [
        {
          "internalType": "address",
          "name": "",
          "type": "address"
        }
      ],
      "stateMutability": "view",
      "type": "function"
    },
    {
      "inputs": [],
      "name": "pdrLogger",
      "outputs": [
        {
          "internalType": "contract PDRLogger",
          "name": "",
          "type": "address"
        }
      ],
      "stateMutability": "view",
      "type": "function"
    },
    {
      "inputs": [],
      "name": "policyCheckVerifier",
      "outputs": [
        {
          "internalType": "contract Groth16Verifier",
          "name": "",
          "type": "address"
        }
      ],
      "stateMutability": "view",
      "type": "function"
    },
    {
      "inputs": [],
      "name": "policyRegistry",
      "outputs": [
        {
          "internalType": "contract PolicyRegistry",
          "name": "",
          "type": "address"
        }
      ],
      "stateMutability": "view",
      "type": "function"
    },
    {
      "inputs": [
        {
          "internalType": "address",
          "name": "newPDRLogger",
          "type": "address"
        }
      ],
      "name": "setPDRLogger",
      "outputs": [],
      "stateMutability": "nonpayable",
      "type": "function"
    },
    {
      "inputs": [
        {
          "internalType": "address",
          "name": "newVerifier",
          "type": "address"
        }
      ],
      "name": "setPolicyCheckVerifier",
      "outputs": [],
      "stateMutability": "nonpayable",
      "type": "function"
    },
    {
      "inputs": [
        {
          "internalType": "address",
          "name": "newPolicyRegistry",
          "type": "address"
        }
      ],
      "name": "setPolicyRegistry",
      "outputs": [],
      "stateMutability": "nonpayable",
      "type": "function"
    }
  ],
  "bytecode": "0x608060405260016004553480156200001657600080fd5b50604051620019cd380380620019cd83398181016040528101906200003c9190620001b2565b33600360006101000a81548173ffffffffffffffffffffffffffffffffffffffff021916908373ffffffffffffffffffffffffffffffffffffffff160217905550826000806101000a81548173ffffffffffffffffffffffffffffffffffffffff021916908373ffffffffffffffffffffffffffffffffffffffff16021790555081600160006101000a81548173ffffffffffffffffffffffffffffffffffffffff021916908373ffffffffffffffffffffffffffffffffffffffff16021790555080600260006101000a81548173ffffffffffffffffffffffffffffffffffffffff021916908373ffffffffffffffffffffffffffffffffffffffff1602179055505050506200020e565b600080fd5b600073ffffffffffffffffffffffffffffffffffffffff82169050919050565b60006200017a826200014d565b9050919050565b6200018c816200016d565b81146200019857600080fd5b50565b600081519050620001ac8162000181565b92915050565b600080600060608486031215620001ce57620001cd62000148565b5b6000620001de868287016200019b565b9350506020620001f1868287016200019b565b925050604062000204868287016200019b565b9150509250925092565b6117af806200021e6000396000f3fe6080604052600436106100915760003560e01c806394620ba81161005957806394620ba81461017d578063bc84847b146101ba578063e015c85d146101ea578063e8e3b88214610213578063e9d766b01461023e57610091565b806315babf4d146100965780631c4dd7d0146100bf5780635811a969146100ea57806376b7c8e3146101155780638da5cb5b14610152575b600080fd5b3480156100a257600080fd5b506100bd60048036038101906100b89190610cee565b610267565b005b3480156100cb57600080fd5b506100d461033b565b6040516100e19190610d7a565b60405180910390f35b3480156100f657600080fd5b506100ff61035f565b60405161010c9190610db6565b60405180910390f35b34801561012157600080fd5b5061013c60048036038101906101379190610cee565b610385565b6040516101499190610dec565b60405180910390f35b34801561015e57600080fd5b50610167610429565b6040516101749190610e16565b60405180910390f35b34801561018957600080fd5b506101a4600480360381019061019f9190610cee565b61044f565b6040516101b19190610e4a565b60405180910390f35b6101d460048036038101906101cf9190610f86565b6104f3565b6040516101e19190610dec565b60405180910390f35b3480156101f657600080fd5b50610211600480360381019061020c9190610cee565b610996565b005b34801561021f57600080fd5b50610228610a69565b60405161023591906110a0565b60405180910390f35b34801561024a57600080fd5b5061026560048036038101906102609190610cee565b610a8f565b005b600360009054906101000a900473ffffffffffffffffffffffffffffffffffffffff1673ffffffffffffffffffffffffffffffffffffffff163373ffffffffffffffffffffffffffffffffffffffff16146102f7576040517f08c379a00000000000000000000000000000000000000000000000000000000081526004016102ee9061113e565b60405180910390fd5b80600160006101000a81548173ffffffffffffffffffffffffffffffffffffffff021916908373ffffffffffffffffffffffffffffffffffffffff16021790555050565b60008054906101000a900473ffffffffffffffffffffffffffffffffffffffff1681565b600260009054906101000a900473ffffffffffffffffffffffffffffffffffffffff1681565b60008060009054906101000a900473ffffffffffffffffffffffffffffffffffffffff1673ffffffffffffffffffffffffffffffffffffffff1663321193ae836040518263ffffffff1660e01b81526004016103e19190610e16565b602060405180830381865afa1580156103fe573d6000803e3d6000fd5b505050506040513d601f19601f82011682018060405250810190610422919061118a565b9050919050565b600360009054906101000a900473ffffffffffffffffffffffffffffffffffffffff1681565b60008060009054906101000a900473ffffffffffffffffffffffffffffffffffffffff1673ffffffffffffffffffffffffffffffffffffffff16633791dc6a836040518263ffffffff1660e01b81526004016104ab9190610e16565b602060405180830381865afa1580156104c8573d6000803e3d6000fd5b505050506040513d601f19601f820116820180604052508101906104ec91906111e3565b9050919050565b600060016004541461053a576040517f08c379a00000000000000000000000000000000000000000000000000000000081526004016105319061125c565b60405180910390fd5b600260048190555060008054906101000a900473ffffffffffffffffffffffffffffffffffffffff1673ffffffffffffffffffffffffffffffffffffffff1663321193ae8c6040518263ffffffff1660e01b815260040161059b9190610e16565b602060405180830381865afa1580156105b8573d6000803e3d6000fd5b505050506040513d601f19601f820116820180604052508101906105dc919061118a565b61061b576040517f08c379a0000000000000000000000000000000000000000000000000000000008152600401610612906112ee565b60405180910390fd5b60008060009054906101000a900473ffffffffffffffffffffffffffffffffffffffff1673ffffffffffffffffffffffffffffffffffffffff16633791dc6a8d6040518263ffffffff1660e01b81526004016106779190610e16565b602060405180830381865afa158015610694573d6000803e3d6000fd5b505050506040513d601f19601f820116820180604052508101906106b891906111e3565b90506000836000600181106106d0576106cf61130e565b5b602002013590506000600260009054906101000a900473ffffffffffffffffffffffffffffffffffffffff1673ffffffffffffffffffffffffffffffffffffffff166343753b4d898989896040518563ffffffff1660e01b815260040161073a9493929190611425565b602060405180830381865afa158015610757573d6000803e3d6000fd5b505050506040513d601f19601f8201168201806040525081019061077b919061118a565b905080801561078a5750600182145b9350600160009054906101000a900473ffffffffffffffffffffffffffffffffffffffff1673ffffffffffffffffffffffffffffffffffffffff16632431e07b8f8f8f87896040518663ffffffff1660e01b81526004016107ef9594939291906114b9565b600060405180830381600087803b15801561080957600080fd5b505af115801561081d573d6000803e3d6000fd5b505050508d73ffffffffffffffffffffffffffffffffffffffff167f2c7ea07d2cdbcb633ebed54ba971bbe304765e4276a90f3baa4306c56a8e35bf858f8f4260405161086d9493929190611520565b60405180910390a28380156108af5750600073ffffffffffffffffffffffffffffffffffffffff168b73ffffffffffffffffffffffffffffffffffffffff1614155b156108c5576108c08e8c8c8c610b63565b61097d565b600034111561097c5760003373ffffffffffffffffffffffffffffffffffffffff16346040516108f490611591565b60006040518083038185875af1925050503d8060008114610931576040519150601f19603f3d011682016040523d82523d6000602084013e610936565b606091505b505090508061097a576040517f08c379a0000000000000000000000000000000000000000000000000000000008152600401610971906115f2565b60405180910390fd5b505b5b50505060016004819055509a9950505050505050505050565b600360009054906101000a900473ffffffffffffffffffffffffffffffffffffffff1673ffffffffffffffffffffffffffffffffffffffff163373ffffffffffffffffffffffffffffffffffffffff1614610a26576040517f08c379a0000000000000000000000000000000000000000000000000000000008152600401610a1d9061113e565b60405180910390fd5b806000806101000a81548173ffffffffffffffffffffffffffffffffffffffff021916908373ffffffffffffffffffffffffffffffffffffffff16021790555050565b600160009054906101000a900473ffffffffffffffffffffffffffffffffffffffff1681565b600360009054906101000a900473ffffffffffffffffffffffffffffffffffffffff1673ffffffffffffffffffffffffffffffffffffffff163373ffffffffffffffffffffffffffffffffffffffff1614610b1f576040517f08c379a0000000000000000000000000000000000000000000000000000000008152600401610b169061113e565b60405180910390fd5b80600260006101000a81548173ffffffffffffffffffffffffffffffffffffffff021916908373ffffffffffffffffffffffffffffffffffffffff16021790555050565b6000808473ffffffffffffffffffffffffffffffffffffffff16348585604051610b8e929190611637565b60006040518083038185875af1925050503d8060008114610bcb576040519150601f19603f3d011682016040523d82523d6000602084013e610bd0565b606091505b509150915081610c15576040517f08c379a0000000000000000000000000000000000000000000000000000000008152600401610c0c9061169c565b60405180910390fd5b8473ffffffffffffffffffffffffffffffffffffffff168673ffffffffffffffffffffffffffffffffffffffff167f38fd4eca0fdc2f9aa34166b2c0046c28a90f28dd9f6845a5bed82b841c2bc387348585604051610c769392919061173b565b60405180910390a3505050505050565b600080fd5b600080fd5b600073ffffffffffffffffffffffffffffffffffffffff82169050919050565b6000610cbb82610c90565b9050919050565b610ccb81610cb0565b8114610cd657600080fd5b50565b600081359050610ce881610cc2565b92915050565b600060208284031215610d0457610d03610c86565b5b6000610d1284828501610cd9565b91505092915050565b6000819050919050565b6000610d40610d3b610d3684610c90565b610d1b565b610c90565b9050919050565b6000610d5282610d25565b9050919050565b6000610d6482610d47565b9050919050565b610d7481610d59565b82525050565b6000602082019050610d8f6000830184610d6b565b92915050565b6000610da082610d47565b9050919050565b610db081610d95565b82525050565b6000602082019050610dcb6000830184610da7565b92915050565b60008115159050919050565b610de681610dd1565b82525050565b6000602082019050610e016000830184610ddd565b92915050565b610e1081610cb0565b82525050565b6000602082019050610e2b6000830184610e07565b92915050565b6000819050919050565b610e4481610e31565b82525050565b6000602082019050610e5f6000830184610e3b565b92915050565b600080fd5b600080fd5b600080fd5b60008083601f840112610e8a57610e89610e65565b5b8235905067ffffffffffffffff811115610ea757610ea6610e6a565b5b602083019150836001820283011115610ec357610ec2610e6f565b5b9250929050565b60008083601f840112610ee057610edf610e65565b5b8235905067ffffffffffffffff811115610efd57610efc610e6a565b5b602083019150836001820283011115610f1957610f18610e6f565b5b9250929050565b600081905082602060020282011115610f3c57610f3b610e6f565b5b92915050565b600081905082604060020282011115610f5e57610f5d610e6f565b5b92915050565b600081905082602060010282011115610f8057610f7f610e6f565b5b92915050565b6000806000806000806000806000806101a08b8d031215610faa57610fa9610c86565b5b6000610fb88d828e01610cd9565b9a505060208b013567ffffffffffffffff811115610fd957610fd8610c8b565b5b610fe58d828e01610e74565b99509950506040610ff88d828e01610cd9565b97505060608b013567ffffffffffffffff81111561101957611018610c8b565b5b6110258d828e01610eca565b965096505060806110388d828e01610f20565b94505060c06110498d828e01610f42565b93505061014061105b8d828e01610f20565b92505061018061106d8d828e01610f64565b9150509295989b9194979a5092959850565b600061108a82610d47565b9050919050565b61109a8161107f565b82525050565b60006020820190506110b56000830184611091565b92915050565b600082825260208201905092915050565b7f4f6e6c79206f776e65722063616e2063616c6c20746869732066756e6374696f60008201527f6e00000000000000000000000000000000000000000000000000000000000000602082015250565b60006111286021836110bb565b9150611133826110cc565b604082019050919050565b600060208201905081810360008301526111578161111b565b9050919050565b61116781610dd1565b811461117257600080fd5b50565b6000815190506111848161115e565b92915050565b6000602082840312156111a05761119f610c86565b5b60006111ae84828501611175565b91505092915050565b6111c081610e31565b81146111cb57600080fd5b50565b6000815190506111dd816111b7565b92915050565b6000602082840312156111f9576111f8610c86565b5b6000611207848285016111ce565b91505092915050565b7f5265656e7472616e742063616c6c000000000000000000000000000000000000600082015250565b6000611246600e836110bb565b915061125182611210565b602082019050919050565b6000602082019050818103600083015261127581611239565b9050919050565b7f4167656e74206d7573742068617665207265676973746572656420706f6c696360008201527f7920746f20657865637574650000000000000000000000000000000000000000602082015250565b60006112d8602c836110bb565b91506112e38261127c565b604082019050919050565b60006020820190508181036000830152611307816112cb565b9050919050565b7f4e487b7100000000000000000000000000000000000000000000000000000000600052603260045260246000fd5b82818337505050565b6113526040838361133d565b5050565b600060029050919050565b600081905092915050565b6000819050919050565b6113826040838361133d565b5050565b60006113928383611376565b60408301905092915050565b600082905092915050565b6000604082019050919050565b6113bf81611356565b6113c98184611361565b92506113d48261136c565b8060005b8381101561140d576113ea828461139e565b6113f48782611386565b96506113ff836113a9565b9250506001810190506113d8565b505050505050565b6114216020838361133d565b5050565b60006101208201905061143b6000830187611346565b61144860408301866113b6565b61145560c0830185611346565b611463610100830184611415565b95945050505050565b82818337600083830152505050565b6000601f19601f8301169050919050565b600061149883856110bb565b93506114a583858461146c565b6114ae8361147b565b840190509392505050565b60006080820190506114ce6000830188610e07565b81810360208301526114e181868861148c565b90506114f06040830185610e3b565b6114fd6060830184610ddd565b9695505050505050565b6000819050919050565b61151a81611507565b82525050565b60006060820190506115356000830187610ddd565b818103602083015261154881858761148c565b90506115576040830184611511565b95945050505050565b600081905092915050565b50565b600061157b600083611560565b91506115868261156b565b600082019050919050565b600061159c8261156e565b9150819050919050565b7f4578656375746f723a20726566756e64206661696c6564000000000000000000600082015250565b60006115dc6017836110bb565b91506115e7826115a6565b602082019050919050565b6000602082019050818103600083015261160b816115cf565b9050919050565b600061161e8385611560565b935061162b83858461146c565b82840190509392505050565b6000611644828486611612565b91508190509392505050565b7f4578656375746f723a20616374696f6e2063616c6c2072657665727465640000600082015250565b6000611686601e836110bb565b915061169182611650565b602082019050919050565b600060208201905081810360008301526116b581611679565b9050919050565b600081519050919050565b600082825260208201905092915050565b60005b838110156116f65780820151818401526020810190506116db565b60008484015250505050565b600061170d826116bc565b61171781856116c7565b93506117278185602086016116d8565b6117308161147b565b840191505092915050565b60006060820190506117506000830186611511565b61175d6020830185610ddd565b818103604083015261176f8184611702565b905094935050505056fea2646970667358221220bdd9b03e17eadffb9454070f756af1827662789f3acced292bafca9c8fd21ae264736f6c63430008130033",
  "linkReferences": {},
  "deployedLinkReferences": {}
}