{
  "_format": "hh-sol-artifact-1",
  "contractName": "Executor",
  "sourceName": "contracts/Executor.sol",
  "abi": [
    {
      "inputs": [
        {
          "internalType": "address",
          "name": "_policyRegistryAddress",
          "type": "address"
        },
        {
          "internalType": "address",
          "name": "_pdrLoggerAddress",
          "type": "address"
        },
        {
          "internalType": "address",
          "name": "_policyCheckVerifierAddress",
          "type": "address"
        }
      ],
      "stateMutability": "nonpayable",
      "type": "constructor"
    },
    {
      "anonymous": false,
      "inputs": [
        {
          "indexed": true,
          "internalType": "address",
          "name": "agent",
          "type": "address"
        },
        {
          "indexed": false,
          "internalType": "bool",
          "name": "isAuthorized",
          "type": "bool"
        },
        {
          "indexed": false,
          "internalType": "string",
          "name": "actionType",
          "type": "string"
        },
        {
          "indexed": false,
          "internalType": "uint256",
          "name": "timestamp",
          "type": "uint256"
        }
      ],
      "name": "ExecutionAttempted",
      "type": "event"
    },
    {
      "inputs": [
        {
          "internalType": "address",
          "name": "agent",
          "type": "address"
        },
        {
          "internalType": "string",
          "name": "actionType",
          "type": "string"
        },
        {
          "internalType": "uint256[2]",
          "name": "proofA",
          "type": "uint256[2]"
        },
        {
          "internalType": "uint256[2][2]",
          "name": "proofB",
          "type": "uint256[2][2]"
        },
        {
          "internalType": "uint256[2]",
          "name": "proofC",
          "type": "uint256[2]"
        },
        {
          "internalType": "uint256[1]",
          "name": "pubSignals",
          "type": "uint256[1]"
        }
      ],
      "name": "executeWithVerification",
      "outputs": [
        {
          "internalType": "bool",
          "name": "success",
          "type": "bool"
        }
      ],
      "stateMutability": "nonpayable",
      "type": "function"
    },
    {
      "inputs": [
        {
          "internalType": "address",
          "name": "agent",
          "type": "address"
        }
      ],
      "name": "getAgentPolicy",
      "outputs": [
        {
          "internalType": "bytes32",
          "name": "",
          "type": "bytes32"
        }
      ],
      "stateMutability": "view",
      "type": "function"
    },
    {
      "inputs": [
        {
          "internalType": "address",
          "name": "agent",
          "type": "address"
        }
      ],
      "name": "isAgentCompliant",
      "outputs": [
        {
          "internalType": "bool",
          "name": "",
          "type": "bool"
        }
      ],
      "stateMutability": "view",
      "type": "function"
    },
    {
      "inputs": [],
      "name": "owner",
      "outputs": [
        {
          "internalType": "address",
          "name": "",
          "type": "address"
        }
      ],
      "stateMutability": "view",
      "type": "function"
    },
    {
      "inputs": [],
      "name": "pdrLogger",
      "outputs": [
        {
          "internalType": "contract PDRLogger",
          "name": "",
          "type": "address"
        }
      ],
      "stateMutability": "view",
      "type": "function"
    },
    {
      "inputs": [],
      "name": "policyCheckVerifier",
      "outputs": [
        {
          "internalType": "contract Groth16Verifier",
          "name": "",
          "type": "address"
        }
      ],
      "stateMutability": "view",
      "type": "function"
    },
    {
      "inputs": [],
      "name": "policyRegistry",
      "outputs": [
        {
          "internalType": "contract PolicyRegistry",
          "name": "",
          "type": "address"
        }
      ],
      "stateMutability": "view",
      "type": "function"
    },
    {
      "inputs": [
        {
          "internalType": "address",
          "name": "newPDRLogger",
          "type": "address"
        }
      ],
      "name": "setPDRLogger",
      "outputs": [],
      "stateMutability": "nonpayable",
      "type": "function"
    },
    {
      "inputs": [
        {
          "internalType": "address",
          "name": "newVerifier",
          "type": "address"
        }
      ],
      "name": "setPolicyCheckVerifier",
      "outputs": [],
      "stateMutability": "nonpayable",
      "type": "function"
    },
    {
      "inputs": [
        {
          "internalType": "address",
          "name": "newPolicyRegistry",
          "type": "address"
        }
      ],
      "name": "setPolicyRegistry",
      "outputs": [],
      "stateMutability": "nonpayable",
      "type": "function"
    }
  ],
  "bytecode": "0x60806040523480156200001157600080fd5b50604051620013c2380380620013c28339818101604052810190620000379190620001ad565b33600360006101000a81548173ffffffffffffffffffffffffffffffffffffffff021916908373ffffffffffffffffffffffffffffffffffffffff160217905550826000806101000a81548173ffffffffffffffffffffffffffffffffffffffff021916908373ffffffffffffffffffffffffffffffffffffffff16021790555081600160006101000a81548173ffffffffffffffffffffffffffffffffffffffff021916908373ffffffffffffffffffffffffffffffffffffffff16021790555080600260006101000a81548173ffffffffffffffffffffffffffffffffffffffff021916908373ffffffffffffffffffffffffffffffffffffffff16021790555050505062000209565b600080fd5b600073ffffffffffffffffffffffffffffffffffffffff82169050919050565b6000620001758262000148565b9050919050565b620001878162000168565b81146200019357600080fd5b50565b600081519050620001a7816200017c565b92915050565b600080600060608486031215620001c957620001c862000143565b5b6000620001d98682870162000196565b9350506020620001ec8682870162000196565b9250506040620001ff8682870162000196565b9150509250925092565b6111a980620002196000396000f3fe608060405234801561001057600080fd5b506004361061009e5760003560e01c806394620ba81161006657806394620ba814610149578063cb0194fd14610179578063e015c85d146101a9578063e8e3b882146101c5578063e9d766b0146101e35761009e565b806315babf4d146100a35780631c4dd7d0146100bf5780635811a969146100dd57806376b7c8e3146100fb5780638da5cb5b1461012b575b600080fd5b6100bd60048036038101906100b89190610a0a565b6101ff565b005b6100c76102d3565b6040516100d49190610a96565b60405180910390f35b6100e56102f7565b6040516100f29190610ad2565b60405180910390f35b61011560048036038101906101109190610a0a565b61031d565b6040516101229190610b08565b60405180910390f35b6101336103c1565b6040516101409190610b32565b60405180910390f35b610163600480360381019061015e9190610a0a565b6103e7565b6040516101709190610b66565b60405180910390f35b610193600480360381019061018e9190610c4c565b61048b565b6040516101a09190610b08565b60405180910390f35b6101c360048036038101906101be9190610a0a565b6107d5565b005b6101cd6108a8565b6040516101da9190610d1f565b60405180910390f35b6101fd60048036038101906101f89190610a0a565b6108ce565b005b600360009054906101000a900473ffffffffffffffffffffffffffffffffffffffff1673ffffffffffffffffffffffffffffffffffffffff163373ffffffffffffffffffffffffffffffffffffffff161461028f576040517f08c379a000000000000000000000000000000000000000000000000000000000815260040161028690610dbd565b60405180910390fd5b80600160006101000a81548173ffffffffffffffffffffffffffffffffffffffff021916908373ffffffffffffffffffffffffffffffffffffffff16021790555050565b60008054906101000a900473ffffffffffffffffffffffffffffffffffffffff1681565b600260009054906101000a900473ffffffffffffffffffffffffffffffffffffffff1681565b60008060009054906101000a900473ffffffffffffffffffffffffffffffffffffffff1673ffffffffffffffffffffffffffffffffffffffff1663321193ae836040518263ffffffff1660e01b81526004016103799190610b32565b602060405180830381865afa158015610396573d6000803e3d6000fd5b505050506040513d601f19601f820116820180604052508101906103ba9190610e09565b9050919050565b600360009054906101000a900473ffffffffffffffffffffffffffffffffffffffff1681565b60008060009054906101000a900473ffffffffffffffffffffffffffffffffffffffff1673ffffffffffffffffffffffffffffffffffffffff16633791dc6a836040518263ffffffff1660e01b81526004016104439190610b32565b602060405180830381865afa158015610460573d6000803e3d6000fd5b505050506040513d601f19601f820116820180604052508101906104849190610e62565b9050919050565b60008060009054906101000a900473ffffffffffffffffffffffffffffffffffffffff1673ffffffffffffffffffffffffffffffffffffffff1663321193ae896040518263ffffffff1660e01b81526004016104e79190610b32565b602060405180830381865afa158015610504573d6000803e3d6000fd5b505050506040513d601f19601f820116820180604052508101906105289190610e09565b610567576040517f08c379a000000000000000000000000000000000000000000000000000000000815260040161055e90610f01565b60405180910390fd5b60008060009054906101000a900473ffffffffffffffffffffffffffffffffffffffff1673ffffffffffffffffffffffffffffffffffffffff16633791dc6a8a6040518263ffffffff1660e01b81526004016105c39190610b32565b602060405180830381865afa1580156105e0573d6000803e3d6000fd5b505050506040513d601f19601f820116820180604052508101906106049190610e62565b905060008360006001811061061c5761061b610f21565b5b602002013590506000600260009054906101000a900473ffffffffffffffffffffffffffffffffffffffff1673ffffffffffffffffffffffffffffffffffffffff166343753b4d898989896040518563ffffffff1660e01b81526004016106869493929190611038565b602060405180830381865afa1580156106a3573d6000803e3d6000fd5b505050506040513d601f19601f820116820180604052508101906106c79190610e09565b905060008180156106d85750600183145b9050600160009054906101000a900473ffffffffffffffffffffffffffffffffffffffff1673ffffffffffffffffffffffffffffffffffffffff16632431e07b8d8d8d88866040518663ffffffff1660e01b815260040161073d9594939291906110cc565b600060405180830381600087803b15801561075757600080fd5b505af115801561076b573d6000803e3d6000fd5b505050508b73ffffffffffffffffffffffffffffffffffffffff167f2c7ea07d2cdbcb633ebed54ba971bbe304765e4276a90f3baa4306c56a8e35bf828d8d426040516107bb9493929190611133565b60405180910390a280945050505050979650505050505050565b600360009054906101000a900473ffffffffffffffffffffffffffffffffffffffff1673ffffffffffffffffffffffffffffffffffffffff163373ffffffffffffffffffffffffffffffffffffffff1614610865576040517f08c379a000000000000000000000000000000000000000000000000000000000815260040161085c90610dbd565b60405180910390fd5b806000806101000a81548173ffffffffffffffffffffffffffffffffffffffff021916908373ffffffffffffffffffffffffffffffffffffffff16021790555050565b600160009054906101000a900473ffffffffffffffffffffffffffffffffffffffff1681565b600360009054906101000a900473ffffffffffffffffffffffffffffffffffffffff1673ffffffffffffffffffffffffffffffffffffffff163373ffffffffffffffffffffffffffffffffffffffff161461095e576040517f08c379a000000000000000000000000000000000000000000000000000000000815260040161095590610dbd565b60405180910390fd5b80600260006101000a81548173ffffffffffffffffffffffffffffffffffffffff021916908373ffffffffffffffffffffffffffffffffffffffff16021790555050565b600080fd5b600080fd5b600073ffffffffffffffffffffffffffffffffffffffff82169050919050565b60006109d7826109ac565b9050919050565b6109e7816109cc565b81146109f257600080fd5b50565b600081359050610a04816109de565b92915050565b600060208284031215610a2057610a1f6109a2565b5b6000610a2e848285016109f5565b91505092915050565b6000819050919050565b6000610a5c610a57610a52846109ac565b610a37565b6109ac565b9050919050565b6000610a6e82610a41565b9050919050565b6000610a8082610a63565b9050919050565b610a9081610a75565b82525050565b6000602082019050610aab6000830184610a87565b92915050565b6000610abc82610a63565b9050919050565b610acc81610ab1565b82525050565b6000602082019050610ae76000830184610ac3565b92915050565b60008115159050919050565b610b0281610aed565b82525050565b6000602082019050610b1d6000830184610af9565b92915050565b610b2c816109cc565b82525050565b6000602082019050610b476000830184610b23565b92915050565b6000819050919050565b610b6081610b4d565b82525050565b6000602082019050610b7b6000830184610b57565b92915050565b600080fd5b600080fd5b600080fd5b60008083601f840112610ba657610ba5610b81565b5b8235905067ffffffffffffffff811115610bc357610bc2610b86565b5b602083019150836001820283011115610bdf57610bde610b8b565b5b9250929050565b600081905082602060020282011115610c0257610c01610b8b565b5b92915050565b600081905082604060020282011115610c2457610c23610b8b565b5b92915050565b600081905082602060010282011115610c4657610c45610b8b565b5b92915050565b6000806000806000806000610160888a031215610c6c57610c6b6109a2565b5b6000610c7a8a828b016109f5565b975050602088013567ffffffffffffffff811115610c9b57610c9a6109a7565b5b610ca78a828b01610b90565b96509650506040610cba8a828b01610be6565b9450506080610ccb8a828b01610c08565b935050610100610cdd8a828b01610be6565b925050610140610cef8a828b01610c2a565b91505092959891949750929550565b6000610d0982610a63565b9050919050565b610d1981610cfe565b82525050565b6000602082019050610d346000830184610d10565b92915050565b600082825260208201905092915050565b7f4f6e6c79206f776e65722063616e2063616c6c20746869732066756e6374696f60008201527f6e00000000000000000000000000000000000000000000000000000000000000602082015250565b6000610da7602183610d3a565b9150610db282610d4b565b604082019050919050565b60006020820190508181036000830152610dd681610d9a565b9050919050565b610de681610aed565b8114610df157600080fd5b50565b600081519050610e0381610ddd565b92915050565b600060208284031215610e1f57610e1e6109a2565b5b6000610e2d84828501610df4565b91505092915050565b610e3f81610b4d565b8114610e4a57600080fd5b50565b600081519050610e5c81610e36565b92915050565b600060208284031215610e7857610e776109a2565b5b6000610e8684828501610e4d565b91505092915050565b7f4167656e74206d7573742068617665207265676973746572656420706f6c696360008201527f7920746f20657865637574650000000000000000000000000000000000000000602082015250565b6000610eeb602c83610d3a565b9150610ef682610e8f565b604082019050919050565b60006020820190508181036000830152610f1a81610ede565b9050919050565b7f4e487b7100000000000000000000000000000000000000000000000000000000600052603260045260246000fd5b82818337505050565b610f6560408383610f50565b5050565b600060029050919050565b600081905092915050565b6000819050919050565b610f9560408383610f50565b5050565b6000610fa58383610f89565b60408301905092915050565b600082905092915050565b6000604082019050919050565b610fd281610f69565b610fdc8184610f74565b9250610fe782610f7f565b8060005b8381101561102057610ffd8284610fb1565b6110078782610f99565b965061101283610fbc565b925050600181019050610feb565b505050505050565b61103460208383610f50565b5050565b60006101208201905061104e6000830187610f59565b61105b6040830186610fc9565b61106860c0830185610f59565b611076610100830184611028565b95945050505050565b82818337600083830152505050565b6000601f19601f8301169050919050565b60006110ab8385610d3a565b93506110b883858461107f565b6110c18361108e565b840190509392505050565b60006080820190506110e16000830188610b23565b81810360208301526110f481868861109f565b90506111036040830185610b57565b6111106060830184610af9565b9695505050505050565b6000819050919050565b61112d8161111a565b82525050565b60006060820190506111486000830187610af9565b818103602083015261115b81858761109f565b905061116a6040830184611124565b9594505050505056fea26469706673582212205af07f5a4d64a7d48788ab0e5e4ca4b4273323318d0cc921f2f51d88e82248b864736f6c63430008130033",
  "linkReferences": {},
  "deployedLinkReferences": {}
}