{
  "_format": "hh-sol-artifact-1",
  "contractName": "PDRLogger",
  "sourceName": "contracts/PDRLogger.sol",
  "abi": [
    {
      "anonymous": false,
      "inputs": [
        {
          "indexed": true,
          "internalType": "address",
          "name": "agent",
          "type": "address"
        },
        {
          "indexed": false,
          "internalType": "string",
          "name": "actionType",
          "type": "string"
        },
        {
          "indexed": true,
          "internalType": "bytes32",
          "name": "policyHash",
          "type": "bytes32"
        },
        {
          "indexed": false,
          "internalType": "bool",
          "name": "isCompliant",
          "type": "bool"
        },
        {
          "indexed": false,
          "internalType": "uint256",
          "name": "timestamp",
          "type": "uint256"
        }
      ],
      "name": "DecisionLogged",
      "type": "event"
    },
    {
      "inputs": [
        {
          "internalType": "address",
          "name": "agent",
          "type": "address"
        },
        {
          "internalType": "string",
          "name": "actionType",
          "type": "string"
        },
        {
          "internalType": "bytes32",
          "name": "policyHash",
          "type": "bytes32"
        },
        {
          "internalType": "bool",
          "name": "isCompliant",
          "type": "bool"
        }
      ],
      "name": "logDecision",
      "outputs": [],
      "stateMutability": "nonpayable",
      "type": "function"
    }
  ],
  "bytecode": "0x608060405234801561001057600080fd5b50610367806100206000396000f3fe608060405234801561001057600080fd5b506004361061002b5760003560e01c80632431e07b14610030575b600080fd5b61004a600480360381019061004591906101e3565b61004c565b005b818573ffffffffffffffffffffffffffffffffffffffff167f099b71a338d55ed99ea85f22d7f5b8c844013dd109e10122e3b80bc24af24b498686854260405161009994939291906102f1565b60405180910390a35050505050565b600080fd5b600080fd5b600073ffffffffffffffffffffffffffffffffffffffff82169050919050565b60006100dd826100b2565b9050919050565b6100ed816100d2565b81146100f857600080fd5b50565b60008135905061010a816100e4565b92915050565b600080fd5b600080fd5b600080fd5b60008083601f84011261013557610134610110565b5b8235905067ffffffffffffffff81111561015257610151610115565b5b60208301915083600182028301111561016e5761016d61011a565b5b9250929050565b6000819050919050565b61018881610175565b811461019357600080fd5b50565b6000813590506101a58161017f565b92915050565b60008115159050919050565b6101c0816101ab565b81146101cb57600080fd5b50565b6000813590506101dd816101b7565b92915050565b6000806000806000608086880312156101ff576101fe6100a8565b5b600061020d888289016100fb565b955050602086013567ffffffffffffffff81111561022e5761022d6100ad565b5b61023a8882890161011f565b9450945050604061024d88828901610196565b925050606061025e888289016101ce565b9150509295509295909350565b600082825260208201905092915050565b82818337600083830152505050565b6000601f19601f8301169050919050565b60006102a8838561026b565b93506102b583858461027c565b6102be8361028b565b840190509392505050565b6102d2816101ab565b82525050565b6000819050919050565b6102eb816102d8565b82525050565b6000606082019050818103600083015261030c81868861029c565b905061031b60208301856102c9565b61032860408301846102e2565b9594505050505056fea2646970667358221220ed47faf1e7e767760b39a91329bfe60a113713aa3b6b2e04a67d7fc02bc7c8c464736f6c63430008130033",
  "linkReferences": {},
  "deployedLinkReferences": {}
}